{
  "_format": "hh-sol-artifact-1",
  "contractName": "FlashSwap",
  "sourceName": "contracts/FlashSwap.sol",
  "abi": [
    {
      "inputs": [
        {
          "internalType": "contract ISwapRouter",
          "name": "_swapRouter",
          "type": "address"
        },
        {
          "internalType": "address",
          "name": "_factory",
          "type": "address"
        },
        {
          "internalType": "address",
          "name": "_WETH9",
          "type": "address"
        }
      ],
      "stateMutability": "nonpayable",
      "type": "constructor"
    },
    {
      "anonymous": false,
      "inputs": [
        {
          "indexed": false,
          "internalType": "string",
          "name": "",
          "type": "string"
        },
        {
          "indexed": false,
          "internalType": "uint256",
          "name": "",
          "type": "uint256"
        },
        {
          "indexed": false,
          "internalType": "uint256",
          "name": "",
          "type": "uint256"
        }
      ],
      "name": "EventFlashSwap",
      "type": "event"
    },
    {
      "inputs": [],
      "name": "WETH9",
      "outputs": [
        {
          "internalType": "address",
          "name": "",
          "type": "address"
        }
      ],
      "stateMutability": "view",
      "type": "function"
    },
    {
      "inputs": [],
      "name": "factory",
      "outputs": [
        {
          "internalType": "address",
          "name": "",
          "type": "address"
        }
      ],
      "stateMutability": "view",
      "type": "function"
    },
    {
      "inputs": [
        {
          "components": [
            {
              "internalType": "address",
              "name": "token0",
              "type": "address"
            },
            {
              "internalType": "address",
              "name": "token1",
              "type": "address"
            },
            {
              "internalType": "uint24",
              "name": "fee1",
              "type": "uint24"
            },
            {
              "internalType": "uint256",
              "name": "amount0",
              "type": "uint256"
            },
            {
              "internalType": "uint256",
              "name": "amount1",
              "type": "uint256"
            },
            {
              "internalType": "uint24",
              "name": "fee2",
              "type": "uint24"
            }
          ],
          "internalType": "struct FlashSwap.FlashParams",
          "name": "params",
          "type": "tuple"
        }
      ],
      "name": "initFlash",
      "outputs": [],
      "stateMutability": "nonpayable",
      "type": "function"
    },
    {
      "inputs": [],
      "name": "refundETH",
      "outputs": [],
      "stateMutability": "payable",
      "type": "function"
    },
    {
      "inputs": [],
      "name": "swapRouter",
      "outputs": [
        {
          "internalType": "contract ISwapRouter",
          "name": "",
          "type": "address"
        }
      ],
      "stateMutability": "view",
      "type": "function"
    },
    {
      "inputs": [
        {
          "internalType": "address",
          "name": "token",
          "type": "address"
        },
        {
          "internalType": "uint256",
          "name": "amountMinimum",
          "type": "uint256"
        },
        {
          "internalType": "address",
          "name": "recipient",
          "type": "address"
        }
      ],
      "name": "sweepToken",
      "outputs": [],
      "stateMutability": "payable",
      "type": "function"
    },
    {
      "inputs": [
        {
          "internalType": "uint256",
          "name": "fee0",
          "type": "uint256"
        },
        {
          "internalType": "uint256",
          "name": "fee1",
          "type": "uint256"
        },
        {
          "internalType": "bytes",
          "name": "data",
          "type": "bytes"
        }
      ],
      "name": "uniswapV3FlashCallback",
      "outputs": [],
      "stateMutability": "nonpayable",
      "type": "function"
    },
    {
      "inputs": [
        {
          "internalType": "uint256",
          "name": "amountMinimum",
          "type": "uint256"
        },
        {
          "internalType": "address",
          "name": "recipient",
          "type": "address"
        }
      ],
      "name": "unwrapWETH9",
      "outputs": [],
      "stateMutability": "payable",
      "type": "function"
    },
    {
      "stateMutability": "payable",
      "type": "receive"
    }
  ],
  "bytecode": "0x60e06040523480156200001157600080fd5b5060405162001cf438038062001cf483398101604081905262000034916200005c565b6001600160601b0319606092831b811660805290821b811660a05291901b1660c052620000c8565b60008060006060848603121562000071578283fd5b83516200007e81620000af565b60208501519093506200009181620000af565b6040850151909250620000a481620000af565b809150509250925092565b6001600160a01b0381168114620000c557600080fd5b50565b60805160601c60a05160601c60c05160601c611bbb6200013960003980610564528061071d52806107485280610799528061096c525080609c5280610208528061033252806103cc528061122f528061128f5280611310525080610451528061058852806106dc5250611bbb6000f3fe60806040526004361061007f5760003560e01c8063c31c9c071161004e578063c31c9c0714610195578063c45a0155146101aa578063df2ab5bb146101bf578063e9cbafb0146101d25761012a565b806312210e8a1461012f57806349404b7c146101375780634aa4a4fc1461014a578063a1aeb7dc146101755761012a565b3661012a573373ffffffffffffffffffffffffffffffffffffffff7f0000000000000000000000000000000000000000000000000000000000000000161461012857604080517f08c379a000000000000000000000000000000000000000000000000000000000815260206004820152600960248201527f4e6f742057455448390000000000000000000000000000000000000000000000604482015290519081900360640190fd5b005b600080fd5b6101286101f2565b610128610145366004611803565b610204565b34801561015657600080fd5b5061015f6103ca565b60405161016c91906118a9565b60405180910390f35b34801561018157600080fd5b50610128610190366004611761565b6103ee565b3480156101a157600080fd5b5061015f610562565b3480156101b657600080fd5b5061015f610586565b6101286101cd36600461163c565b6105aa565b3480156101de57600080fd5b506101286101ed36600461182e565b6106c7565b4715610202576102023347610bb2565b565b60007f000000000000000000000000000000000000000000000000000000000000000073ffffffffffffffffffffffffffffffffffffffff166370a08231306040518263ffffffff1660e01b8152600401808273ffffffffffffffffffffffffffffffffffffffff16815260200191505060206040518083038186803b15801561028d57600080fd5b505afa1580156102a1573d6000803e3d6000fd5b505050506040513d60208110156102b757600080fd5b505190508281101561032a57604080517f08c379a000000000000000000000000000000000000000000000000000000000815260206004820152601260248201527f496e73756666696369656e742057455448390000000000000000000000000000604482015290519081900360640190fd5b80156103c5577f000000000000000000000000000000000000000000000000000000000000000073ffffffffffffffffffffffffffffffffffffffff16632e1a7d4d826040518263ffffffff1660e01b815260040180828152602001915050600060405180830381600087803b1580156103a357600080fd5b505af11580156103b7573d6000803e3d6000fd5b505050506103c58282610bb2565b505050565b7f000000000000000000000000000000000000000000000000000000000000000081565b60006040518060600160405280836000015173ffffffffffffffffffffffffffffffffffffffff168152602001836020015173ffffffffffffffffffffffffffffffffffffffff168152602001836040015162ffffff16815250905060006104767f000000000000000000000000000000000000000000000000000000000000000083610d00565b90508073ffffffffffffffffffffffffffffffffffffffff1663490e6cbc30856060015186608001516040518060a0016040528089606001518152602001896080015181526020013373ffffffffffffffffffffffffffffffffffffffff1681526020018881526020018960a0015162ffffff168152506040516020016104fd9190611b3f565b6040516020818303038152906040526040518563ffffffff1660e01b815260040161052b94939291906118ca565b600060405180830381600087803b15801561054557600080fd5b505af1158015610559573d6000803e3d6000fd5b50505050505050565b7f000000000000000000000000000000000000000000000000000000000000000081565b7f000000000000000000000000000000000000000000000000000000000000000081565b60008373ffffffffffffffffffffffffffffffffffffffff166370a08231306040518263ffffffff1660e01b8152600401808273ffffffffffffffffffffffffffffffffffffffff16815260200191505060206040518083038186803b15801561061357600080fd5b505afa158015610627573d6000803e3d6000fd5b505050506040513d602081101561063d57600080fd5b50519050828110156106b057604080517f08c379a000000000000000000000000000000000000000000000000000000000815260206004820152601260248201527f496e73756666696369656e7420746f6b656e0000000000000000000000000000604482015290519081900360640190fd5b80156106c1576106c1848383610e36565b50505050565b60006106d582840184611677565b90506107057f00000000000000000000000000000000000000000000000000000000000000008260600151611012565b506060810151805160209091015182516107429083907f000000000000000000000000000000000000000000000000000000000000000090611048565b610771817f00000000000000000000000000000000000000000000000000000000000000008560200151611048565b600061078184602001518861121d565b9050600061079385600001518a61121d565b905060007f000000000000000000000000000000000000000000000000000000000000000073ffffffffffffffffffffffffffffffffffffffff1663414bf3896040518061010001604052808773ffffffffffffffffffffffffffffffffffffffff1681526020018873ffffffffffffffffffffffffffffffffffffffff168152602001896080015162ffffff1681526020013073ffffffffffffffffffffffffffffffffffffffff1681526020014281526020018960200151815260200160008152602001600073ffffffffffffffffffffffffffffffffffffffff168152506040518263ffffffff1660e01b81526004016108909190611ac3565b602060405180830381600087803b1580156108aa57600080fd5b505af11580156108be573d6000803e3d6000fd5b505050506040513d601f19601f820116820180604052508101906108e291906117eb565b604080516101008101825273ffffffffffffffffffffffffffffffffffffffff8881168252878116602083015260808a81015162ffffff16838501523060608401524290830152895160a0830152600060c0830181905260e0830181905292517f414bf38900000000000000000000000000000000000000000000000000000000815293945091927f00000000000000000000000000000000000000000000000000000000000000009092169163414bf389916109a191600401611ac3565b602060405180830381600087803b1580156109bb57600080fd5b505af11580156109cf573d6000803e3d6000fd5b505050506040513d601f19601f820116820180604052508101906109f391906117eb565b90506000610a0588600001518d61121d565b90506000610a1789602001518d61121d565b9050610a24883084611048565b610a2f873083611048565b8115610a4157610a418830338561122d565b8015610a5357610a538730338461122d565b81841115610a86576000610a67858461140b565b9050610a74893083611048565b610a8489308c604001518461122d565b505b80831115610ab9576000610a9a848361140b565b9050610aa7893083611048565b610ab788308c604001518461122d565b505b885160208a01516040517f9625d24433d47b9c77d630fcd18d86fdae93cf2b7aed74078fa48a3f7f46461d92610af0929091611a3b565b60405180910390a17f9625d24433d47b9c77d630fcd18d86fdae93cf2b7aed74078fa48a3f7f46461d8587604051610b29929190611967565b60405180910390a17f9625d24433d47b9c77d630fcd18d86fdae93cf2b7aed74078fa48a3f7f46461d8484604051610b629291906119d1565b60405180910390a17f9625d24433d47b9c77d630fcd18d86fdae93cf2b7aed74078fa48a3f7f46461d8282604051610b9b929190611a7f565b60405180910390a150505050505050505050505050565b6040805160008082526020820190925273ffffffffffffffffffffffffffffffffffffffff84169083906040518082805190602001908083835b60208310610c2957805182527fffffffffffffffffffffffffffffffffffffffffffffffffffffffffffffffe09092019160209182019101610bec565b6001836020036101000a03801982511681845116808217855250505050505090500191505060006040518083038185875af1925050503d8060008114610c8b576040519150601f19603f3d011682016040523d82523d6000602084013e610c90565b606091505b50509050806103c557604080517f08c379a000000000000000000000000000000000000000000000000000000000815260206004820152600360248201527f5354450000000000000000000000000000000000000000000000000000000000604482015290519081900360640190fd5b6000816020015173ffffffffffffffffffffffffffffffffffffffff16826000015173ffffffffffffffffffffffffffffffffffffffff1610610d4257600080fd5b508051602080830151604093840151845173ffffffffffffffffffffffffffffffffffffffff94851681850152939091168385015262ffffff166060808401919091528351808403820181526080840185528051908301207fff0000000000000000000000000000000000000000000000000000000000000060a085015294901b7fffffffffffffffffffffffffffffffffffffffff0000000000000000000000001660a183015260b58201939093527fe34f199b19b2b4f47f68442619d555527d244f78a3297ea89325f843f87b8b5460d5808301919091528251808303909101815260f5909101909152805191012090565b6040805173ffffffffffffffffffffffffffffffffffffffff8481166024830152604480830185905283518084039091018152606490920183526020820180517bffffffffffffffffffffffffffffffffffffffffffffffffffffffff167fa9059cbb000000000000000000000000000000000000000000000000000000001781529251825160009485949389169392918291908083835b60208310610f0b57805182527fffffffffffffffffffffffffffffffffffffffffffffffffffffffffffffffe09092019160209182019101610ece565b6001836020036101000a0380198251168184511680821785525050505050509050019150506000604051808303816000865af19150503d8060008114610f6d576040519150601f19603f3d011682016040523d82523d6000602084013e610f72565b606091505b5091509150818015610fa0575080511580610fa05750808060200190516020811015610f9d57600080fd5b50515b61100b57604080517f08c379a000000000000000000000000000000000000000000000000000000000815260206004820152600260248201527f5354000000000000000000000000000000000000000000000000000000000000604482015290519081900360640190fd5b5050505050565b600061101e8383610d00565b90503373ffffffffffffffffffffffffffffffffffffffff82161461104257600080fd5b92915050565b6040805173ffffffffffffffffffffffffffffffffffffffff8481166024830152604480830185905283518084039091018152606490920183526020820180517bffffffffffffffffffffffffffffffffffffffffffffffffffffffff167f095ea7b3000000000000000000000000000000000000000000000000000000001781529251825160009485949389169392918291908083835b6020831061111d57805182527fffffffffffffffffffffffffffffffffffffffffffffffffffffffffffffffe090920191602091820191016110e0565b6001836020036101000a0380198251168184511680821785525050505050509050019150506000604051808303816000865af19150503d806000811461117f576040519150601f19603f3d011682016040523d82523d6000602084013e611184565b606091505b50915091508180156111b25750805115806111b257508080602001905160208110156111af57600080fd5b50515b61100b57604080517f08c379a000000000000000000000000000000000000000000000000000000000815260206004820152600260248201527f5341000000000000000000000000000000000000000000000000000000000000604482015290519081900360640190fd5b8082018281101561104257600080fd5b7f000000000000000000000000000000000000000000000000000000000000000073ffffffffffffffffffffffffffffffffffffffff168473ffffffffffffffffffffffffffffffffffffffff161480156112885750804710155b156113d1577f000000000000000000000000000000000000000000000000000000000000000073ffffffffffffffffffffffffffffffffffffffff1663d0e30db0826040518263ffffffff1660e01b81526004016000604051808303818588803b1580156112f557600080fd5b505af1158015611309573d6000803e3d6000fd5b50505050507f000000000000000000000000000000000000000000000000000000000000000073ffffffffffffffffffffffffffffffffffffffff1663a9059cbb83836040518363ffffffff1660e01b8152600401808373ffffffffffffffffffffffffffffffffffffffff16815260200182815260200192505050602060405180830381600087803b15801561139f57600080fd5b505af11580156113b3573d6000803e3d6000fd5b505050506040513d60208110156113c957600080fd5b506106c19050565b73ffffffffffffffffffffffffffffffffffffffff83163014156113ff576113fa848383610e36565b6106c1565b6106c18484848461141b565b8082038281111561104257600080fd5b6040805173ffffffffffffffffffffffffffffffffffffffff85811660248301528481166044830152606480830185905283518084039091018152608490920183526020820180517bffffffffffffffffffffffffffffffffffffffffffffffffffffffff167f23b872dd00000000000000000000000000000000000000000000000000000000178152925182516000948594938a169392918291908083835b602083106114f857805182527fffffffffffffffffffffffffffffffffffffffffffffffffffffffffffffffe090920191602091820191016114bb565b6001836020036101000a0380198251168184511680821785525050505050509050019150506000604051808303816000865af19150503d806000811461155a576040519150601f19603f3d011682016040523d82523d6000602084013e61155f565b606091505b509150915081801561158d57508051158061158d575080806020019051602081101561158a57600080fd5b50515b6115f857604080517f08c379a000000000000000000000000000000000000000000000000000000000815260206004820152600360248201527f5354460000000000000000000000000000000000000000000000000000000000604482015290519081900360640190fd5b505050505050565b803573ffffffffffffffffffffffffffffffffffffffff8116811461162457600080fd5b919050565b803562ffffff8116811461162457600080fd5b600080600060608486031215611650578283fd5b61165984611600565b92506020840135915061166e60408501611600565b90509250925092565b600081830360e0811215611689578182fd5b6040805160a0810167ffffffffffffffff82821081831117156116a857fe5b81845286358352602087013560208401526116c4848801611600565b8484015260607fffffffffffffffffffffffffffffffffffffffffffffffffffffffffffffffa0860112156116f7578586fd5b83519450606085019150848210818311171561170f57fe5b50825261171e60608601611600565b835261172c60808601611600565b602084015261173d60a08601611629565b8284015282606082015261175360c08601611629565b608082015295945050505050565b600060c08284031215611772578081fd5b60405160c0810181811067ffffffffffffffff8211171561178f57fe5b60405261179b83611600565b81526117a960208401611600565b60208201526117ba60408401611629565b604082015260608301356060820152608083013560808201526117df60a08401611629565b60a08201529392505050565b6000602082840312156117fc578081fd5b5051919050565b60008060408385031215611815578182fd5b8235915061182560208401611600565b90509250929050565b60008060008060608587031215611843578081fd5b8435935060208501359250604085013567ffffffffffffffff80821115611868578283fd5b818701915087601f83011261187b578283fd5b813581811115611889578384fd5b88602082850101111561189a578384fd5b95989497505060200194505050565b73ffffffffffffffffffffffffffffffffffffffff91909116815260200190565b600073ffffffffffffffffffffffffffffffffffffffff8616825260208581840152846040840152608060608401528351806080850152825b8181101561191f5785810183015185820160a001528201611903565b81811115611930578360a083870101525b50601f017fffffffffffffffffffffffffffffffffffffffffffffffffffffffffffffffe0169290920160a0019695505050505050565b60608082526022908201527f626f72726f772061667465722066656520746f6b656e3020616e6420746f6b6560808201527f6e3100000000000000000000000000000000000000000000000000000000000060a08201526020810192909252604082015260c00190565b60608082526022908201527f67657420737761702062616c616e636520746f6b656e3020616e6420746f6b6560808201527f6e3100000000000000000000000000000000000000000000000000000000000060a08201526020810192909252604082015260c00190565b60608082526018908201527f626f72726f7720746f6b656e3020616e6420746f6b656e31000000000000000060808201526020810192909252604082015260a00190565b60608082526019908201527f7061794261636b20746f6b656e3020616e6420746f6b656e310000000000000060808201526020810192909252604082015260a00190565b60006101008201905073ffffffffffffffffffffffffffffffffffffffff80845116835280602085015116602084015262ffffff60408501511660408401528060608501511660608401526080840151608084015260a084015160a084015260c084015160c08401528060e08501511660e08401525092915050565b815181526020808301518183015260408084015173ffffffffffffffffffffffffffffffffffffffff908116828501526060808601518051831691860191909152928301511660808085019190915291015162ffffff90811660a084015292015190911660c082015260e0019056fea164736f6c6343000706000a",
  "linkReferences": {},
  "deployedLinkReferences": {}
}