{"contracts/v3-periphery/contracts/lens/TickLens.sol":{"TickLens":{"abi":[{"inputs":[{"internalType":"address","name":"pool","type":"address"},{"internalType":"int16","name":"tickBitmapIndex","type":"int16"}],"name":"getPopulatedTicksInWord","outputs":[{"components":[{"internalType":"int24","name":"tick","type":"int24"},{"internalType":"int128","name":"liquidityNet","type":"int128"},{"internalType":"uint128","name":"liquidityGross","type":"uint128"}],"internalType":"struct ITickLens.PopulatedTick[]","name":"populatedTicks","type":"tuple[]"}],"stateMutability":"view","type":"function"}],"evm":{"bytecode":{"linkReferences":{},"object":"608060405234801561001057600080fd5b50610569806100206000396000f3fe608060405234801561001057600080fd5b506004361061002b5760003560e01c8063351fb47814610030575b600080fd5b61004361003e36600461037c565b610059565b60405161005091906104aa565b60405180910390f35b606060008373ffffffffffffffffffffffffffffffffffffffff16635339c296846040518263ffffffff1660e01b8152600401610096919061051b565b60206040518083038186803b1580156100ae57600080fd5b505afa1580156100c2573d6000803e3d6000fd5b505050506040513d601f19601f820116820180604052508101906100e69190610492565b90506000805b610100811015610110576001811b831615610108576001909101905b6001016100ec565b5060008573ffffffffffffffffffffffffffffffffffffffff1663d0c93a7c6040518163ffffffff1660e01b815260040160206040518083038186803b15801561015957600080fd5b505afa15801561016d573d6000803e3d6000fd5b505050506040513d601f19601f8201168201806040525081019061019191906103ba565b90508167ffffffffffffffff811180156101aa57600080fd5b506040519080825280602002602001820160405280156101e457816020015b6101d1610328565b8152602001906001900390816101c95790505b50935060005b61010081101561031e576001811b841615610316576040517ff30dba93000000000000000000000000000000000000000000000000000000008152600187900b60020b60081b8201830290600090819073ffffffffffffffffffffffffffffffffffffffff8b169063f30dba9390610266908690600401610529565b6101006040518083038186803b15801561027f57600080fd5b505afa158015610293573d6000803e3d6000fd5b505050506040513d601f19601f820116820180604052508101906102b791906103e2565b5050505050509150915060405180606001604052808460020b815260200182600f0b8152602001836fffffffffffffffffffffffffffffffff168152508887600190039750878151811061030757fe5b60200260200101819052505050505b6001016101ea565b5050505092915050565b604080516060810182526000808252602082018190529181019190915290565b8051801515811461035857600080fd5b919050565b805161035881610537565b805163ffffffff8116811461035857600080fd5b6000806040838503121561038e578182fd5b823561039981610537565b91506020830135600181900b81146103af578182fd5b809150509250929050565b6000602082840312156103cb578081fd5b81518060020b81146103db578182fd5b9392505050565b600080600080600080600080610100898b0312156103fe578384fd5b88516fffffffffffffffffffffffffffffffff8116811461041d578485fd5b80985050602089015180600f0b8114610434578485fd5b80975050604089015195506060890151945060808901518060060b8114610459578485fd5b935061046760a08a0161035d565b925061047560c08a01610368565b915061048360e08a01610348565b90509295985092959890939650565b6000602082840312156104a3578081fd5b5051919050565b602080825282518282018190526000919060409081850190868401855b8281101561050e578151805160020b855286810151600f0b878601528501516fffffffffffffffffffffffffffffffff1685850152606090930192908501906001016104c7565b5091979650505050505050565b60019190910b815260200190565b60029190910b815260200190565b73ffffffffffffffffffffffffffffffffffffffff8116811461055957600080fd5b5056fea164736f6c6343000706000a","opcodes":"PUSH1 0x80 PUSH1 0x40 MSTORE CALLVALUE DUP1 ISZERO PUSH2 0x10 JUMPI PUSH1 0x0 DUP1 REVERT JUMPDEST POP PUSH2 0x569 DUP1 PUSH2 0x20 PUSH1 0x0 CODECOPY PUSH1 0x0 RETURN INVALID PUSH1 0x80 PUSH1 0x40 MSTORE CALLVALUE DUP1 ISZERO PUSH2 0x10 JUMPI PUSH1 0x0 DUP1 REVERT JUMPDEST POP PUSH1 0x4 CALLDATASIZE LT PUSH2 0x2B JUMPI PUSH1 0x0 CALLDATALOAD PUSH1 0xE0 SHR DUP1 PUSH4 0x351FB478 EQ PUSH2 0x30 JUMPI JUMPDEST PUSH1 0x0 DUP1 REVERT JUMPDEST PUSH2 0x43 PUSH2 0x3E CALLDATASIZE PUSH1 0x4 PUSH2 0x37C JUMP JUMPDEST PUSH2 0x59 JUMP JUMPDEST PUSH1 0x40 MLOAD PUSH2 0x50 SWAP2 SWAP1 PUSH2 0x4AA JUMP JUMPDEST PUSH1 0x40 MLOAD DUP1 SWAP2 SUB SWAP1 RETURN JUMPDEST PUSH1 0x60 PUSH1 0x0 DUP4 PUSH20 0xFFFFFFFFFFFFFFFFFFFFFFFFFFFFFFFFFFFFFFFF AND PUSH4 0x5339C296 DUP5 PUSH1 0x40 MLOAD DUP3 PUSH4 0xFFFFFFFF AND PUSH1 0xE0 SHL DUP2 MSTORE PUSH1 0x4 ADD PUSH2 0x96 SWAP2 SWAP1 PUSH2 0x51B JUMP JUMPDEST PUSH1 0x20 PUSH1 0x40 MLOAD DUP1 DUP4 SUB DUP2 DUP7 DUP1 EXTCODESIZE ISZERO DUP1 ISZERO PUSH2 0xAE JUMPI PUSH1 0x0 DUP1 REVERT JUMPDEST POP GAS STATICCALL ISZERO DUP1 ISZERO PUSH2 0xC2 JUMPI RETURNDATASIZE PUSH1 0x0 DUP1 RETURNDATACOPY RETURNDATASIZE PUSH1 0x0 REVERT JUMPDEST POP POP POP POP PUSH1 0x40 MLOAD RETURNDATASIZE PUSH1 0x1F NOT PUSH1 0x1F DUP3 ADD AND DUP3 ADD DUP1 PUSH1 0x40 MSTORE POP DUP2 ADD SWAP1 PUSH2 0xE6 SWAP2 SWAP1 PUSH2 0x492 JUMP JUMPDEST SWAP1 POP PUSH1 0x0 DUP1 JUMPDEST PUSH2 0x100 DUP2 LT ISZERO PUSH2 0x110 JUMPI PUSH1 0x1 DUP2 SHL DUP4 AND ISZERO PUSH2 0x108 JUMPI PUSH1 0x1 SWAP1 SWAP2 ADD SWAP1 JUMPDEST PUSH1 0x1 ADD PUSH2 0xEC JUMP JUMPDEST POP PUSH1 0x0 DUP6 PUSH20 0xFFFFFFFFFFFFFFFFFFFFFFFFFFFFFFFFFFFFFFFF AND PUSH4 0xD0C93A7C PUSH1 0x40 MLOAD DUP2 PUSH4 0xFFFFFFFF AND PUSH1 0xE0 SHL DUP2 MSTORE PUSH1 0x4 ADD PUSH1 0x20 PUSH1 0x40 MLOAD DUP1 DUP4 SUB DUP2 DUP7 DUP1 EXTCODESIZE ISZERO DUP1 ISZERO PUSH2 0x159 JUMPI PUSH1 0x0 DUP1 REVERT JUMPDEST POP GAS STATICCALL ISZERO DUP1 ISZERO PUSH2 0x16D JUMPI RETURNDATASIZE PUSH1 0x0 DUP1 RETURNDATACOPY RETURNDATASIZE PUSH1 0x0 REVERT JUMPDEST POP POP POP POP PUSH1 0x40 MLOAD RETURNDATASIZE PUSH1 0x1F NOT PUSH1 0x1F DUP3 ADD AND DUP3 ADD DUP1 PUSH1 0x40 MSTORE POP DUP2 ADD SWAP1 PUSH2 0x191 SWAP2 SWAP1 PUSH2 0x3BA JUMP JUMPDEST SWAP1 POP DUP2 PUSH8 0xFFFFFFFFFFFFFFFF DUP2 GT DUP1 ISZERO PUSH2 0x1AA JUMPI PUSH1 0x0 DUP1 REVERT JUMPDEST POP PUSH1 0x40 MLOAD SWAP1 DUP1 DUP3 MSTORE DUP1 PUSH1 0x20 MUL PUSH1 0x20 ADD DUP3 ADD PUSH1 0x40 MSTORE DUP1 ISZERO PUSH2 0x1E4 JUMPI DUP2 PUSH1 0x20 ADD JUMPDEST PUSH2 0x1D1 PUSH2 0x328 JUMP JUMPDEST DUP2 MSTORE PUSH1 0x20 ADD SWAP1 PUSH1 0x1 SWAP1 SUB SWAP1 DUP2 PUSH2 0x1C9 JUMPI SWAP1 POP JUMPDEST POP SWAP4 POP PUSH1 0x0 JUMPDEST PUSH2 0x100 DUP2 LT ISZERO PUSH2 0x31E JUMPI PUSH1 0x1 DUP2 SHL DUP5 AND ISZERO PUSH2 0x316 JUMPI PUSH1 0x40 MLOAD PUSH32 0xF30DBA9300000000000000000000000000000000000000000000000000000000 DUP2 MSTORE PUSH1 0x1 DUP8 SWAP1 SIGNEXTEND PUSH1 0x2 SIGNEXTEND PUSH1 0x8 SHL DUP3 ADD DUP4 MUL SWAP1 PUSH1 0x0 SWAP1 DUP2 SWAP1 PUSH20 0xFFFFFFFFFFFFFFFFFFFFFFFFFFFFFFFFFFFFFFFF DUP12 AND SWAP1 PUSH4 0xF30DBA93 SWAP1 PUSH2 0x266 SWAP1 DUP7 SWAP1 PUSH1 0x4 ADD PUSH2 0x529 JUMP JUMPDEST PUSH2 0x100 PUSH1 0x40 MLOAD DUP1 DUP4 SUB DUP2 DUP7 DUP1 EXTCODESIZE ISZERO DUP1 ISZERO PUSH2 0x27F JUMPI PUSH1 0x0 DUP1 REVERT JUMPDEST POP GAS STATICCALL ISZERO DUP1 ISZERO PUSH2 0x293 JUMPI RETURNDATASIZE PUSH1 0x0 DUP1 RETURNDATACOPY RETURNDATASIZE PUSH1 0x0 REVERT JUMPDEST POP POP POP POP PUSH1 0x40 MLOAD RETURNDATASIZE PUSH1 0x1F NOT PUSH1 0x1F DUP3 ADD AND DUP3 ADD DUP1 PUSH1 0x40 MSTORE POP DUP2 ADD SWAP1 PUSH2 0x2B7 SWAP2 SWAP1 PUSH2 0x3E2 JUMP JUMPDEST POP POP POP POP POP POP SWAP2 POP SWAP2 POP PUSH1 0x40 MLOAD DUP1 PUSH1 0x60 ADD PUSH1 0x40 MSTORE DUP1 DUP5 PUSH1 0x2 SIGNEXTEND DUP2 MSTORE PUSH1 0x20 ADD DUP3 PUSH1 0xF SIGNEXTEND DUP2 MSTORE PUSH1 0x20 ADD DUP4 PUSH16 0xFFFFFFFFFFFFFFFFFFFFFFFFFFFFFFFF AND DUP2 MSTORE POP DUP9 DUP8 PUSH1 0x1 SWAP1 SUB SWAP8 POP DUP8 DUP2 MLOAD DUP2 LT PUSH2 0x307 JUMPI INVALID JUMPDEST PUSH1 0x20 MUL PUSH1 0x20 ADD ADD DUP2 SWAP1 MSTORE POP POP POP POP JUMPDEST PUSH1 0x1 ADD PUSH2 0x1EA JUMP JUMPDEST POP POP POP POP SWAP3 SWAP2 POP POP JUMP JUMPDEST PUSH1 0x40 DUP1 MLOAD PUSH1 0x60 DUP2 ADD DUP3 MSTORE PUSH1 0x0 DUP1 DUP3 MSTORE PUSH1 0x20 DUP3 ADD DUP2 SWAP1 MSTORE SWAP2 DUP2 ADD SWAP2 SWAP1 SWAP2 MSTORE SWAP1 JUMP JUMPDEST DUP1 MLOAD DUP1 ISZERO ISZERO DUP2 EQ PUSH2 0x358 JUMPI PUSH1 0x0 DUP1 REVERT JUMPDEST SWAP2 SWAP1 POP JUMP JUMPDEST DUP1 MLOAD PUSH2 0x358 DUP2 PUSH2 0x537 JUMP JUMPDEST DUP1 MLOAD PUSH4 0xFFFFFFFF DUP2 AND DUP2 EQ PUSH2 0x358 JUMPI PUSH1 0x0 DUP1 REVERT JUMPDEST PUSH1 0x0 DUP1 PUSH1 0x40 DUP4 DUP6 SUB SLT ISZERO PUSH2 0x38E JUMPI DUP2 DUP3 REVERT JUMPDEST DUP3 CALLDATALOAD PUSH2 0x399 DUP2 PUSH2 0x537 JUMP JUMPDEST SWAP2 POP PUSH1 0x20 DUP4 ADD CALLDATALOAD PUSH1 0x1 DUP2 SWAP1 SIGNEXTEND DUP2 EQ PUSH2 0x3AF JUMPI DUP2 DUP3 REVERT JUMPDEST DUP1 SWAP2 POP POP SWAP3 POP SWAP3 SWAP1 POP JUMP JUMPDEST PUSH1 0x0 PUSH1 0x20 DUP3 DUP5 SUB SLT ISZERO PUSH2 0x3CB JUMPI DUP1 DUP2 REVERT JUMPDEST DUP2 MLOAD DUP1 PUSH1 0x2 SIGNEXTEND DUP2 EQ PUSH2 0x3DB JUMPI DUP2 DUP3 REVERT JUMPDEST SWAP4 SWAP3 POP POP POP JUMP JUMPDEST PUSH1 0x0 DUP1 PUSH1 0x0 DUP1 PUSH1 0x0 DUP1 PUSH1 0x0 DUP1 PUSH2 0x100 DUP10 DUP12 SUB SLT ISZERO PUSH2 0x3FE JUMPI DUP4 DUP5 REVERT JUMPDEST DUP9 MLOAD PUSH16 0xFFFFFFFFFFFFFFFFFFFFFFFFFFFFFFFF DUP2 AND DUP2 EQ PUSH2 0x41D JUMPI DUP5 DUP6 REVERT JUMPDEST DUP1 SWAP9 POP POP PUSH1 0x20 DUP10 ADD MLOAD DUP1 PUSH1 0xF SIGNEXTEND DUP2 EQ PUSH2 0x434 JUMPI DUP5 DUP6 REVERT JUMPDEST DUP1 SWAP8 POP POP PUSH1 0x40 DUP10 ADD MLOAD SWAP6 POP PUSH1 0x60 DUP10 ADD MLOAD SWAP5 POP PUSH1 0x80 DUP10 ADD MLOAD DUP1 PUSH1 0x6 SIGNEXTEND DUP2 EQ PUSH2 0x459 JUMPI DUP5 DUP6 REVERT JUMPDEST SWAP4 POP PUSH2 0x467 PUSH1 0xA0 DUP11 ADD PUSH2 0x35D JUMP JUMPDEST SWAP3 POP PUSH2 0x475 PUSH1 0xC0 DUP11 ADD PUSH2 0x368 JUMP JUMPDEST SWAP2 POP PUSH2 0x483 PUSH1 0xE0 DUP11 ADD PUSH2 0x348 JUMP JUMPDEST SWAP1 POP SWAP3 SWAP6 SWAP9 POP SWAP3 SWAP6 SWAP9 SWAP1 SWAP4 SWAP7 POP JUMP JUMPDEST PUSH1 0x0 PUSH1 0x20 DUP3 DUP5 SUB SLT ISZERO PUSH2 0x4A3 JUMPI DUP1 DUP2 REVERT JUMPDEST POP MLOAD SWAP2 SWAP1 POP JUMP JUMPDEST PUSH1 0x20 DUP1 DUP3 MSTORE DUP3 MLOAD DUP3 DUP3 ADD DUP2 SWAP1 MSTORE PUSH1 0x0 SWAP2 SWAP1 PUSH1 0x40 SWAP1 DUP2 DUP6 ADD SWAP1 DUP7 DUP5 ADD DUP6 JUMPDEST DUP3 DUP2 LT ISZERO PUSH2 0x50E JUMPI DUP2 MLOAD DUP1 MLOAD PUSH1 0x2 SIGNEXTEND DUP6 MSTORE DUP7 DUP2 ADD MLOAD PUSH1 0xF SIGNEXTEND DUP8 DUP7 ADD MSTORE DUP6 ADD MLOAD PUSH16 0xFFFFFFFFFFFFFFFFFFFFFFFFFFFFFFFF AND DUP6 DUP6 ADD MSTORE PUSH1 0x60 SWAP1 SWAP4 ADD SWAP3 SWAP1 DUP6 ADD SWAP1 PUSH1 0x1 ADD PUSH2 0x4C7 JUMP JUMPDEST POP SWAP2 SWAP8 SWAP7 POP POP POP POP POP POP POP JUMP JUMPDEST PUSH1 0x1 SWAP2 SWAP1 SWAP2 SIGNEXTEND DUP2 MSTORE PUSH1 0x20 ADD SWAP1 JUMP JUMPDEST PUSH1 0x2 SWAP2 SWAP1 SWAP2 SIGNEXTEND DUP2 MSTORE PUSH1 0x20 ADD SWAP1 JUMP JUMPDEST PUSH20 0xFFFFFFFFFFFFFFFFFFFFFFFFFFFFFFFFFFFFFFFF DUP2 AND DUP2 EQ PUSH2 0x559 JUMPI PUSH1 0x0 DUP1 REVERT JUMPDEST POP JUMP INVALID LOG1 PUSH5 0x736F6C6343 STOP SMOD MOD STOP EXP "},"methodIdentifiers":{"getPopulatedTicksInWord(address,int16)":"351fb478"}}}}}