{"contracts/SingleSwap.sol":{"SwapExamples":{"abi":[{"inputs":[{"internalType":"contract ISwapRouter","name":"_swapRouter","type":"address"}],"stateMutability":"nonpayable","type":"constructor"},{"inputs":[],"name":"TETHER","outputs":[{"internalType":"address","name":"","type":"address"}],"stateMutability":"view","type":"function"},{"inputs":[],"name":"USDC","outputs":[{"internalType":"address","name":"","type":"address"}],"stateMutability":"view","type":"function"},{"inputs":[],"name":"WETH9","outputs":[{"internalType":"address","name":"","type":"address"}],"stateMutability":"view","type":"function"},{"inputs":[],"name":"poolFee","outputs":[{"internalType":"uint24","name":"","type":"uint24"}],"stateMutability":"view","type":"function"},{"inputs":[{"internalType":"uint256","name":"amountIn","type":"uint256"}],"name":"swapExactInputSingle","outputs":[{"internalType":"uint256","name":"amountOut","type":"uint256"}],"stateMutability":"nonpayable","type":"function"},{"inputs":[{"internalType":"uint256","name":"amountOut","type":"uint256"},{"internalType":"uint256","name":"amountInMaximum","type":"uint256"}],"name":"swapExactOutputSingle","outputs":[{"internalType":"uint256","name":"amountIn","type":"uint256"}],"stateMutability":"nonpayable","type":"function"},{"inputs":[],"name":"swapRouter","outputs":[{"internalType":"contract ISwapRouter","name":"","type":"address"}],"stateMutability":"view","type":"function"}],"evm":{"bytecode":{"linkReferences":{},"object":"60a060405234801561001057600080fd5b50604051610dbb380380610dbb83398101604081905261002f91610080565b6001600160a01b03166080526100a9565b60006001600160a01b0382165b92915050565b600061004d82610040565b61006781610053565b811461007257600080fd5b50565b805161004d8161005e565b60006020828403121561009557610095600080fd5b60006100a18484610075565b949350505050565b608051610cd46100e760003960008181610124015281816101a20152818161025201528181610322015281816103d201526104830152610cd46000f3fe608060405234801561001057600080fd5b506004361061007d5760003560e01c806378e7e3d11161005b57806378e7e3d1146100e957806389a3027114610104578063c31c9c071461011f578063c4b69a181461015357600080fd5b8063089fe6aa146100825780634aa4a4fc146100a157806373bd43ad146100c9575b600080fd5b61008b610bb881565b60405161009891906108c5565b60405180910390f35b6100bc73c02aaa39b223fe8d0a0e5c4f27ead9083c756cc281565b6040516100989190610900565b6100dc6100d7366004610929565b610166565b6040516100989190610958565b6100bc730165878a594ca255338adfa4d48449f69242eb8f81565b6100bc73a513e6e4b8f2a923d98304ec87f64353c4d5c85381565b6101467f000000000000000000000000000000000000000000000000000000000000000081565b6040516100989190610985565b6100dc610161366004610993565b6102e6565b6000610188730165878a594ca255338adfa4d48449f69242eb8f3330856104d8565b6101c7730165878a594ca255338adfa4d48449f69242eb8f7f00000000000000000000000000000000000000000000000000000000000000008461062d565b6040805161010081018252730165878a594ca255338adfa4d48449f69242eb8f815273c02aaa39b223fe8d0a0e5c4f27ead9083c756cc26020820152610bb88183015233606082015242608082015260a08101849052600060c0820181905260e082015290517f414bf3890000000000000000000000000000000000000000000000000000000081527f000000000000000000000000000000000000000000000000000000000000000073ffffffffffffffffffffffffffffffffffffffff169063414bf3899061029c908490600401610a89565b6020604051808303816000875af11580156102bb573d6000803e3d6000fd5b505050506040513d601f19601f820116820180604052508101906102df9190610aa3565b9392505050565b6000610308730165878a594ca255338adfa4d48449f69242eb8f3330856104d8565b610347730165878a594ca255338adfa4d48449f69242eb8f7f00000000000000000000000000000000000000000000000000000000000000008461062d565b6040805161010081018252730165878a594ca255338adfa4d48449f69242eb8f815273c02aaa39b223fe8d0a0e5c4f27ead9083c756cc26020820152610bb88183015233606082015242608082015260a0810185905260c08101849052600060e082015290517fdb3e21980000000000000000000000000000000000000000000000000000000081527f000000000000000000000000000000000000000000000000000000000000000073ffffffffffffffffffffffffffffffffffffffff169063db3e21989061041c908490600401610a89565b6020604051808303816000875af115801561043b573d6000803e3d6000fd5b505050506040513d601f19601f8201168201806040525081019061045f9190610aa3565b9150828210156104d1576104a9730165878a594ca255338adfa4d48449f69242eb8f7f0000000000000000000000000000000000000000000000000000000000000000600061062d565b6104d1730165878a594ca255338adfa4d48449f69242eb8f336104cc8587610af3565b610776565b5092915050565b6000808573ffffffffffffffffffffffffffffffffffffffff166323b872dd60e01b86868660405160240161050f93929190610b06565b60408051601f198184030181529181526020820180517bffffffffffffffffffffffffffffffffffffffffffffffffffffffff167fffffffff0000000000000000000000000000000000000000000000000000000090941693909317909252905161057a9190610b74565b6000604051808303816000865af19150503d80600081146105b7576040519150601f19603f3d011682016040523d82523d6000602084013e6105bc565b606091505b50915091508180156105e65750805115806105e65750808060200190518101906105e69190610b93565b610625576040517f08c379a000000000000000000000000000000000000000000000000000000000815260040161061c90610beb565b60405180910390fd5b505050505050565b6000808473ffffffffffffffffffffffffffffffffffffffff1663095ea7b360e01b8585604051602401610662929190610bfb565b60408051601f198184030181529181526020820180517bffffffffffffffffffffffffffffffffffffffffffffffffffffffff167fffffffff000000000000000000000000000000000000000000000000000000009094169390931790925290516106cd9190610b74565b6000604051808303816000865af19150503d806000811461070a576040519150601f19603f3d011682016040523d82523d6000602084013e61070f565b606091505b50915091508180156107395750805115806107395750808060200190518101906107399190610b93565b61076f576040517f08c379a000000000000000000000000000000000000000000000000000000000815260040161061c90610c4a565b5050505050565b6000808473ffffffffffffffffffffffffffffffffffffffff1663a9059cbb60e01b85856040516024016107ab929190610bfb565b60408051601f198184030181529181526020820180517bffffffffffffffffffffffffffffffffffffffffffffffffffffffff167fffffffff000000000000000000000000000000000000000000000000000000009094169390931790925290516108169190610b74565b6000604051808303816000865af19150503d8060008114610853576040519150601f19603f3d011682016040523d82523d6000602084013e610858565b606091505b50915091508180156108825750805115806108825750808060200190518101906108829190610b93565b61076f576040517f08c379a000000000000000000000000000000000000000000000000000000000815260040161061c90610c8e565b62ffffff81165b82525050565b602081016108d382846108b8565b92915050565b600073ffffffffffffffffffffffffffffffffffffffff82166108d3565b6108bf816108d9565b602081016108d382846108f7565b805b811461091b57600080fd5b50565b80356108d38161090e565b60006020828403121561093e5761093e600080fd5b600061094a848461091e565b949350505050565b806108bf565b602081016108d38284610952565b60006108d3826108d9565b60006108d382610966565b6108bf81610971565b602081016108d3828461097c565b600080604083850312156109a9576109a9600080fd5b60006109b5858561091e565b92505060206109c68582860161091e565b9150509250929050565b73ffffffffffffffffffffffffffffffffffffffff81166108bf565b80516101008301906109fe84826108f7565b506020820151610a1160208501826108f7565b506040820151610a2460408501826108b8565b506060820151610a3760608501826108f7565b506080820151610a4a6080850182610952565b5060a0820151610a5d60a0850182610952565b5060c0820151610a7060c0850182610952565b5060e0820151610a8360e08501826109d0565b50505050565b61010081016108d382846109ec565b80516108d38161090e565b600060208284031215610ab857610ab8600080fd5b600061094a8484610a98565b7f4e487b7100000000000000000000000000000000000000000000000000000000600052601160045260246000fd5b818103818111156108d3576108d3610ac4565b60608101610b1482866108f7565b610b2160208301856108f7565b61094a6040830184610952565b60005b83811015610b49578181015183820152602001610b31565b50506000910152565b6000610b5c825190565b610b6a818560208601610b2e565b9290920192915050565b60006102df8284610b52565b801515610910565b80516108d381610b80565b600060208284031215610ba857610ba8600080fd5b600061094a8484610b88565b600381526000602082017f5354460000000000000000000000000000000000000000000000000000000000815291505b5060200190565b602080825281016108d381610bb4565b60408101610c0982856108f7565b6102df6020830184610952565b600281526000602082017f534100000000000000000000000000000000000000000000000000000000000081529150610be4565b602080825281016108d381610c16565b600281526000602082017f535400000000000000000000000000000000000000000000000000000000000081529150610be4565b602080825281016108d381610c5a56fea2646970667358221220026a4f0fae1d45ff97810355a597b96abdbc1cbffbae1c965b2be00135f5136764736f6c63430008110033","opcodes":"PUSH1 0xA0 PUSH1 0x40 MSTORE CALLVALUE DUP1 ISZERO PUSH2 0x10 JUMPI PUSH1 0x0 DUP1 REVERT JUMPDEST POP PUSH1 0x40 MLOAD PUSH2 0xDBB CODESIZE SUB DUP1 PUSH2 0xDBB DUP4 CODECOPY DUP2 ADD PUSH1 0x40 DUP2 SWAP1 MSTORE PUSH2 0x2F SWAP2 PUSH2 0x80 JUMP JUMPDEST PUSH1 0x1 PUSH1 0x1 PUSH1 0xA0 SHL SUB AND PUSH1 0x80 MSTORE PUSH2 0xA9 JUMP JUMPDEST PUSH1 0x0 PUSH1 0x1 PUSH1 0x1 PUSH1 0xA0 SHL SUB DUP3 AND JUMPDEST SWAP3 SWAP2 POP POP JUMP JUMPDEST PUSH1 0x0 PUSH2 0x4D DUP3 PUSH2 0x40 JUMP JUMPDEST PUSH2 0x67 DUP2 PUSH2 0x53 JUMP JUMPDEST DUP2 EQ PUSH2 0x72 JUMPI PUSH1 0x0 DUP1 REVERT JUMPDEST POP JUMP JUMPDEST DUP1 MLOAD PUSH2 0x4D DUP2 PUSH2 0x5E JUMP JUMPDEST PUSH1 0x0 PUSH1 0x20 DUP3 DUP5 SUB SLT ISZERO PUSH2 0x95 JUMPI PUSH2 0x95 PUSH1 0x0 DUP1 REVERT JUMPDEST PUSH1 0x0 PUSH2 0xA1 DUP5 DUP5 PUSH2 0x75 JUMP JUMPDEST SWAP5 SWAP4 POP POP POP POP JUMP JUMPDEST PUSH1 0x80 MLOAD PUSH2 0xCD4 PUSH2 0xE7 PUSH1 0x0 CODECOPY PUSH1 0x0 DUP2 DUP2 PUSH2 0x124 ADD MSTORE DUP2 DUP2 PUSH2 0x1A2 ADD MSTORE DUP2 DUP2 PUSH2 0x252 ADD MSTORE DUP2 DUP2 PUSH2 0x322 ADD MSTORE DUP2 DUP2 PUSH2 0x3D2 ADD MSTORE PUSH2 0x483 ADD MSTORE PUSH2 0xCD4 PUSH1 0x0 RETURN INVALID PUSH1 0x80 PUSH1 0x40 MSTORE CALLVALUE DUP1 ISZERO PUSH2 0x10 JUMPI PUSH1 0x0 DUP1 REVERT JUMPDEST POP PUSH1 0x4 CALLDATASIZE LT PUSH2 0x7D JUMPI PUSH1 0x0 CALLDATALOAD PUSH1 0xE0 SHR DUP1 PUSH4 0x78E7E3D1 GT PUSH2 0x5B JUMPI DUP1 PUSH4 0x78E7E3D1 EQ PUSH2 0xE9 JUMPI DUP1 PUSH4 0x89A30271 EQ PUSH2 0x104 JUMPI DUP1 PUSH4 0xC31C9C07 EQ PUSH2 0x11F JUMPI DUP1 PUSH4 0xC4B69A18 EQ PUSH2 0x153 JUMPI PUSH1 0x0 DUP1 REVERT JUMPDEST DUP1 PUSH4 0x89FE6AA EQ PUSH2 0x82 JUMPI DUP1 PUSH4 0x4AA4A4FC EQ PUSH2 0xA1 JUMPI DUP1 PUSH4 0x73BD43AD EQ PUSH2 0xC9 JUMPI JUMPDEST PUSH1 0x0 DUP1 REVERT JUMPDEST PUSH2 0x8B PUSH2 0xBB8 DUP2 JUMP JUMPDEST PUSH1 0x40 MLOAD PUSH2 0x98 SWAP2 SWAP1 PUSH2 0x8C5 JUMP JUMPDEST PUSH1 0x40 MLOAD DUP1 SWAP2 SUB SWAP1 RETURN JUMPDEST PUSH2 0xBC PUSH20 0xC02AAA39B223FE8D0A0E5C4F27EAD9083C756CC2 DUP2 JUMP JUMPDEST PUSH1 0x40 MLOAD PUSH2 0x98 SWAP2 SWAP1 PUSH2 0x900 JUMP JUMPDEST PUSH2 0xDC PUSH2 0xD7 CALLDATASIZE PUSH1 0x4 PUSH2 0x929 JUMP JUMPDEST PUSH2 0x166 JUMP JUMPDEST PUSH1 0x40 MLOAD PUSH2 0x98 SWAP2 SWAP1 PUSH2 0x958 JUMP JUMPDEST PUSH2 0xBC PUSH20 0x165878A594CA255338ADFA4D48449F69242EB8F DUP2 JUMP JUMPDEST PUSH2 0xBC PUSH20 0xA513E6E4B8F2A923D98304EC87F64353C4D5C853 DUP2 JUMP JUMPDEST PUSH2 0x146 PUSH32 0x0 DUP2 JUMP JUMPDEST PUSH1 0x40 MLOAD PUSH2 0x98 SWAP2 SWAP1 PUSH2 0x985 JUMP JUMPDEST PUSH2 0xDC PUSH2 0x161 CALLDATASIZE PUSH1 0x4 PUSH2 0x993 JUMP JUMPDEST PUSH2 0x2E6 JUMP JUMPDEST PUSH1 0x0 PUSH2 0x188 PUSH20 0x165878A594CA255338ADFA4D48449F69242EB8F CALLER ADDRESS DUP6 PUSH2 0x4D8 JUMP JUMPDEST PUSH2 0x1C7 PUSH20 0x165878A594CA255338ADFA4D48449F69242EB8F PUSH32 0x0 DUP5 PUSH2 0x62D JUMP JUMPDEST PUSH1 0x40 DUP1 MLOAD PUSH2 0x100 DUP2 ADD DUP3 MSTORE PUSH20 0x165878A594CA255338ADFA4D48449F69242EB8F DUP2 MSTORE PUSH20 0xC02AAA39B223FE8D0A0E5C4F27EAD9083C756CC2 PUSH1 0x20 DUP3 ADD MSTORE PUSH2 0xBB8 DUP2 DUP4 ADD MSTORE CALLER PUSH1 0x60 DUP3 ADD MSTORE TIMESTAMP PUSH1 0x80 DUP3 ADD MSTORE PUSH1 0xA0 DUP2 ADD DUP5 SWAP1 MSTORE PUSH1 0x0 PUSH1 0xC0 DUP3 ADD DUP2 SWAP1 MSTORE PUSH1 0xE0 DUP3 ADD MSTORE SWAP1 MLOAD PUSH32 0x414BF38900000000000000000000000000000000000000000000000000000000 DUP2 MSTORE PUSH32 0x0 PUSH20 0xFFFFFFFFFFFFFFFFFFFFFFFFFFFFFFFFFFFFFFFF AND SWAP1 PUSH4 0x414BF389 SWAP1 PUSH2 0x29C SWAP1 DUP5 SWAP1 PUSH1 0x4 ADD PUSH2 0xA89 JUMP JUMPDEST PUSH1 0x20 PUSH1 0x40 MLOAD DUP1 DUP4 SUB DUP2 PUSH1 0x0 DUP8 GAS CALL ISZERO DUP1 ISZERO PUSH2 0x2BB JUMPI RETURNDATASIZE PUSH1 0x0 DUP1 RETURNDATACOPY RETURNDATASIZE PUSH1 0x0 REVERT JUMPDEST POP POP POP POP PUSH1 0x40 MLOAD RETURNDATASIZE PUSH1 0x1F NOT PUSH1 0x1F DUP3 ADD AND DUP3 ADD DUP1 PUSH1 0x40 MSTORE POP DUP2 ADD SWAP1 PUSH2 0x2DF SWAP2 SWAP1 PUSH2 0xAA3 JUMP JUMPDEST SWAP4 SWAP3 POP POP POP JUMP JUMPDEST PUSH1 0x0 PUSH2 0x308 PUSH20 0x165878A594CA255338ADFA4D48449F69242EB8F CALLER ADDRESS DUP6 PUSH2 0x4D8 JUMP JUMPDEST PUSH2 0x347 PUSH20 0x165878A594CA255338ADFA4D48449F69242EB8F PUSH32 0x0 DUP5 PUSH2 0x62D JUMP JUMPDEST PUSH1 0x40 DUP1 MLOAD PUSH2 0x100 DUP2 ADD DUP3 MSTORE PUSH20 0x165878A594CA255338ADFA4D48449F69242EB8F DUP2 MSTORE PUSH20 0xC02AAA39B223FE8D0A0E5C4F27EAD9083C756CC2 PUSH1 0x20 DUP3 ADD MSTORE PUSH2 0xBB8 DUP2 DUP4 ADD MSTORE CALLER PUSH1 0x60 DUP3 ADD MSTORE TIMESTAMP PUSH1 0x80 DUP3 ADD MSTORE PUSH1 0xA0 DUP2 ADD DUP6 SWAP1 MSTORE PUSH1 0xC0 DUP2 ADD DUP5 SWAP1 MSTORE PUSH1 0x0 PUSH1 0xE0 DUP3 ADD MSTORE SWAP1 MLOAD PUSH32 0xDB3E219800000000000000000000000000000000000000000000000000000000 DUP2 MSTORE PUSH32 0x0 PUSH20 0xFFFFFFFFFFFFFFFFFFFFFFFFFFFFFFFFFFFFFFFF AND SWAP1 PUSH4 0xDB3E2198 SWAP1 PUSH2 0x41C SWAP1 DUP5 SWAP1 PUSH1 0x4 ADD PUSH2 0xA89 JUMP JUMPDEST PUSH1 0x20 PUSH1 0x40 MLOAD DUP1 DUP4 SUB DUP2 PUSH1 0x0 DUP8 GAS CALL ISZERO DUP1 ISZERO PUSH2 0x43B JUMPI RETURNDATASIZE PUSH1 0x0 DUP1 RETURNDATACOPY RETURNDATASIZE PUSH1 0x0 REVERT JUMPDEST POP POP POP POP PUSH1 0x40 MLOAD RETURNDATASIZE PUSH1 0x1F NOT PUSH1 0x1F DUP3 ADD AND DUP3 ADD DUP1 PUSH1 0x40 MSTORE POP DUP2 ADD SWAP1 PUSH2 0x45F SWAP2 SWAP1 PUSH2 0xAA3 JUMP JUMPDEST SWAP2 POP DUP3 DUP3 LT ISZERO PUSH2 0x4D1 JUMPI PUSH2 0x4A9 PUSH20 0x165878A594CA255338ADFA4D48449F69242EB8F PUSH32 0x0 PUSH1 0x0 PUSH2 0x62D JUMP JUMPDEST PUSH2 0x4D1 PUSH20 0x165878A594CA255338ADFA4D48449F69242EB8F CALLER PUSH2 0x4CC DUP6 DUP8 PUSH2 0xAF3 JUMP JUMPDEST PUSH2 0x776 JUMP JUMPDEST POP SWAP3 SWAP2 POP POP JUMP JUMPDEST PUSH1 0x0 DUP1 DUP6 PUSH20 0xFFFFFFFFFFFFFFFFFFFFFFFFFFFFFFFFFFFFFFFF AND PUSH4 0x23B872DD PUSH1 0xE0 SHL DUP7 DUP7 DUP7 PUSH1 0x40 MLOAD PUSH1 0x24 ADD PUSH2 0x50F SWAP4 SWAP3 SWAP2 SWAP1 PUSH2 0xB06 JUMP JUMPDEST PUSH1 0x40 DUP1 MLOAD PUSH1 0x1F NOT DUP2 DUP5 SUB ADD DUP2 MSTORE SWAP2 DUP2 MSTORE PUSH1 0x20 DUP3 ADD DUP1 MLOAD PUSH28 0xFFFFFFFFFFFFFFFFFFFFFFFFFFFFFFFFFFFFFFFFFFFFFFFFFFFFFFFF AND PUSH32 0xFFFFFFFF00000000000000000000000000000000000000000000000000000000 SWAP1 SWAP5 AND SWAP4 SWAP1 SWAP4 OR SWAP1 SWAP3 MSTORE SWAP1 MLOAD PUSH2 0x57A SWAP2 SWAP1 PUSH2 0xB74 JUMP JUMPDEST PUSH1 0x0 PUSH1 0x40 MLOAD DUP1 DUP4 SUB DUP2 PUSH1 0x0 DUP7 GAS CALL SWAP2 POP POP RETURNDATASIZE DUP1 PUSH1 0x0 DUP2 EQ PUSH2 0x5B7 JUMPI PUSH1 0x40 MLOAD SWAP2 POP PUSH1 0x1F NOT PUSH1 0x3F RETURNDATASIZE ADD AND DUP3 ADD PUSH1 0x40 MSTORE RETURNDATASIZE DUP3 MSTORE RETURNDATASIZE PUSH1 0x0 PUSH1 0x20 DUP5 ADD RETURNDATACOPY PUSH2 0x5BC JUMP JUMPDEST PUSH1 0x60 SWAP2 POP JUMPDEST POP SWAP2 POP SWAP2 POP DUP2 DUP1 ISZERO PUSH2 0x5E6 JUMPI POP DUP1 MLOAD ISZERO DUP1 PUSH2 0x5E6 JUMPI POP DUP1 DUP1 PUSH1 0x20 ADD SWAP1 MLOAD DUP2 ADD SWAP1 PUSH2 0x5E6 SWAP2 SWAP1 PUSH2 0xB93 JUMP JUMPDEST PUSH2 0x625 JUMPI PUSH1 0x40 MLOAD PUSH32 0x8C379A000000000000000000000000000000000000000000000000000000000 DUP2 MSTORE PUSH1 0x4 ADD PUSH2 0x61C SWAP1 PUSH2 0xBEB JUMP JUMPDEST PUSH1 0x40 MLOAD DUP1 SWAP2 SUB SWAP1 REVERT JUMPDEST POP POP POP POP POP POP JUMP JUMPDEST PUSH1 0x0 DUP1 DUP5 PUSH20 0xFFFFFFFFFFFFFFFFFFFFFFFFFFFFFFFFFFFFFFFF AND PUSH4 0x95EA7B3 PUSH1 0xE0 SHL DUP6 DUP6 PUSH1 0x40 MLOAD PUSH1 0x24 ADD PUSH2 0x662 SWAP3 SWAP2 SWAP1 PUSH2 0xBFB JUMP JUMPDEST PUSH1 0x40 DUP1 MLOAD PUSH1 0x1F NOT DUP2 DUP5 SUB ADD DUP2 MSTORE SWAP2 DUP2 MSTORE PUSH1 0x20 DUP3 ADD DUP1 MLOAD PUSH28 0xFFFFFFFFFFFFFFFFFFFFFFFFFFFFFFFFFFFFFFFFFFFFFFFFFFFFFFFF AND PUSH32 0xFFFFFFFF00000000000000000000000000000000000000000000000000000000 SWAP1 SWAP5 AND SWAP4 SWAP1 SWAP4 OR SWAP1 SWAP3 MSTORE SWAP1 MLOAD PUSH2 0x6CD SWAP2 SWAP1 PUSH2 0xB74 JUMP JUMPDEST PUSH1 0x0 PUSH1 0x40 MLOAD DUP1 DUP4 SUB DUP2 PUSH1 0x0 DUP7 GAS CALL SWAP2 POP POP RETURNDATASIZE DUP1 PUSH1 0x0 DUP2 EQ PUSH2 0x70A JUMPI PUSH1 0x40 MLOAD SWAP2 POP PUSH1 0x1F NOT PUSH1 0x3F RETURNDATASIZE ADD AND DUP3 ADD PUSH1 0x40 MSTORE RETURNDATASIZE DUP3 MSTORE RETURNDATASIZE PUSH1 0x0 PUSH1 0x20 DUP5 ADD RETURNDATACOPY PUSH2 0x70F JUMP JUMPDEST PUSH1 0x60 SWAP2 POP JUMPDEST POP SWAP2 POP SWAP2 POP DUP2 DUP1 ISZERO PUSH2 0x739 JUMPI POP DUP1 MLOAD ISZERO DUP1 PUSH2 0x739 JUMPI POP DUP1 DUP1 PUSH1 0x20 ADD SWAP1 MLOAD DUP2 ADD SWAP1 PUSH2 0x739 SWAP2 SWAP1 PUSH2 0xB93 JUMP JUMPDEST PUSH2 0x76F JUMPI PUSH1 0x40 MLOAD PUSH32 0x8C379A000000000000000000000000000000000000000000000000000000000 DUP2 MSTORE PUSH1 0x4 ADD PUSH2 0x61C SWAP1 PUSH2 0xC4A JUMP JUMPDEST POP POP POP POP POP JUMP JUMPDEST PUSH1 0x0 DUP1 DUP5 PUSH20 0xFFFFFFFFFFFFFFFFFFFFFFFFFFFFFFFFFFFFFFFF AND PUSH4 0xA9059CBB PUSH1 0xE0 SHL DUP6 DUP6 PUSH1 0x40 MLOAD PUSH1 0x24 ADD PUSH2 0x7AB SWAP3 SWAP2 SWAP1 PUSH2 0xBFB JUMP JUMPDEST PUSH1 0x40 DUP1 MLOAD PUSH1 0x1F NOT DUP2 DUP5 SUB ADD DUP2 MSTORE SWAP2 DUP2 MSTORE PUSH1 0x20 DUP3 ADD DUP1 MLOAD PUSH28 0xFFFFFFFFFFFFFFFFFFFFFFFFFFFFFFFFFFFFFFFFFFFFFFFFFFFFFFFF AND PUSH32 0xFFFFFFFF00000000000000000000000000000000000000000000000000000000 SWAP1 SWAP5 AND SWAP4 SWAP1 SWAP4 OR SWAP1 SWAP3 MSTORE SWAP1 MLOAD PUSH2 0x816 SWAP2 SWAP1 PUSH2 0xB74 JUMP JUMPDEST PUSH1 0x0 PUSH1 0x40 MLOAD DUP1 DUP4 SUB DUP2 PUSH1 0x0 DUP7 GAS CALL SWAP2 POP POP RETURNDATASIZE DUP1 PUSH1 0x0 DUP2 EQ PUSH2 0x853 JUMPI PUSH1 0x40 MLOAD SWAP2 POP PUSH1 0x1F NOT PUSH1 0x3F RETURNDATASIZE ADD AND DUP3 ADD PUSH1 0x40 MSTORE RETURNDATASIZE DUP3 MSTORE RETURNDATASIZE PUSH1 0x0 PUSH1 0x20 DUP5 ADD RETURNDATACOPY PUSH2 0x858 JUMP JUMPDEST PUSH1 0x60 SWAP2 POP JUMPDEST POP SWAP2 POP SWAP2 POP DUP2 DUP1 ISZERO PUSH2 0x882 JUMPI POP DUP1 MLOAD ISZERO DUP1 PUSH2 0x882 JUMPI POP DUP1 DUP1 PUSH1 0x20 ADD SWAP1 MLOAD DUP2 ADD SWAP1 PUSH2 0x882 SWAP2 SWAP1 PUSH2 0xB93 JUMP JUMPDEST PUSH2 0x76F JUMPI PUSH1 0x40 MLOAD PUSH32 0x8C379A000000000000000000000000000000000000000000000000000000000 DUP2 MSTORE PUSH1 0x4 ADD PUSH2 0x61C SWAP1 PUSH2 0xC8E JUMP JUMPDEST PUSH3 0xFFFFFF DUP2 AND JUMPDEST DUP3 MSTORE POP POP JUMP JUMPDEST PUSH1 0x20 DUP2 ADD PUSH2 0x8D3 DUP3 DUP5 PUSH2 0x8B8 JUMP JUMPDEST SWAP3 SWAP2 POP POP JUMP JUMPDEST PUSH1 0x0 PUSH20 0xFFFFFFFFFFFFFFFFFFFFFFFFFFFFFFFFFFFFFFFF DUP3 AND PUSH2 0x8D3 JUMP JUMPDEST PUSH2 0x8BF DUP2 PUSH2 0x8D9 JUMP JUMPDEST PUSH1 0x20 DUP2 ADD PUSH2 0x8D3 DUP3 DUP5 PUSH2 0x8F7 JUMP JUMPDEST DUP1 JUMPDEST DUP2 EQ PUSH2 0x91B JUMPI PUSH1 0x0 DUP1 REVERT JUMPDEST POP JUMP JUMPDEST DUP1 CALLDATALOAD PUSH2 0x8D3 DUP2 PUSH2 0x90E JUMP JUMPDEST PUSH1 0x0 PUSH1 0x20 DUP3 DUP5 SUB SLT ISZERO PUSH2 0x93E JUMPI PUSH2 0x93E PUSH1 0x0 DUP1 REVERT JUMPDEST PUSH1 0x0 PUSH2 0x94A DUP5 DUP5 PUSH2 0x91E JUMP JUMPDEST SWAP5 SWAP4 POP POP POP POP JUMP JUMPDEST DUP1 PUSH2 0x8BF JUMP JUMPDEST PUSH1 0x20 DUP2 ADD PUSH2 0x8D3 DUP3 DUP5 PUSH2 0x952 JUMP JUMPDEST PUSH1 0x0 PUSH2 0x8D3 DUP3 PUSH2 0x8D9 JUMP JUMPDEST PUSH1 0x0 PUSH2 0x8D3 DUP3 PUSH2 0x966 JUMP JUMPDEST PUSH2 0x8BF DUP2 PUSH2 0x971 JUMP JUMPDEST PUSH1 0x20 DUP2 ADD PUSH2 0x8D3 DUP3 DUP5 PUSH2 0x97C JUMP JUMPDEST PUSH1 0x0 DUP1 PUSH1 0x40 DUP4 DUP6 SUB SLT ISZERO PUSH2 0x9A9 JUMPI PUSH2 0x9A9 PUSH1 0x0 DUP1 REVERT JUMPDEST PUSH1 0x0 PUSH2 0x9B5 DUP6 DUP6 PUSH2 0x91E JUMP JUMPDEST SWAP3 POP POP PUSH1 0x20 PUSH2 0x9C6 DUP6 DUP3 DUP7 ADD PUSH2 0x91E JUMP JUMPDEST SWAP2 POP POP SWAP3 POP SWAP3 SWAP1 POP JUMP JUMPDEST PUSH20 0xFFFFFFFFFFFFFFFFFFFFFFFFFFFFFFFFFFFFFFFF DUP2 AND PUSH2 0x8BF JUMP JUMPDEST DUP1 MLOAD PUSH2 0x100 DUP4 ADD SWAP1 PUSH2 0x9FE DUP5 DUP3 PUSH2 0x8F7 JUMP JUMPDEST POP PUSH1 0x20 DUP3 ADD MLOAD PUSH2 0xA11 PUSH1 0x20 DUP6 ADD DUP3 PUSH2 0x8F7 JUMP JUMPDEST POP PUSH1 0x40 DUP3 ADD MLOAD PUSH2 0xA24 PUSH1 0x40 DUP6 ADD DUP3 PUSH2 0x8B8 JUMP JUMPDEST POP PUSH1 0x60 DUP3 ADD MLOAD PUSH2 0xA37 PUSH1 0x60 DUP6 ADD DUP3 PUSH2 0x8F7 JUMP JUMPDEST POP PUSH1 0x80 DUP3 ADD MLOAD PUSH2 0xA4A PUSH1 0x80 DUP6 ADD DUP3 PUSH2 0x952 JUMP JUMPDEST POP PUSH1 0xA0 DUP3 ADD MLOAD PUSH2 0xA5D PUSH1 0xA0 DUP6 ADD DUP3 PUSH2 0x952 JUMP JUMPDEST POP PUSH1 0xC0 DUP3 ADD MLOAD PUSH2 0xA70 PUSH1 0xC0 DUP6 ADD DUP3 PUSH2 0x952 JUMP JUMPDEST POP PUSH1 0xE0 DUP3 ADD MLOAD PUSH2 0xA83 PUSH1 0xE0 DUP6 ADD DUP3 PUSH2 0x9D0 JUMP JUMPDEST POP POP POP POP JUMP JUMPDEST PUSH2 0x100 DUP2 ADD PUSH2 0x8D3 DUP3 DUP5 PUSH2 0x9EC JUMP JUMPDEST DUP1 MLOAD PUSH2 0x8D3 DUP2 PUSH2 0x90E JUMP JUMPDEST PUSH1 0x0 PUSH1 0x20 DUP3 DUP5 SUB SLT ISZERO PUSH2 0xAB8 JUMPI PUSH2 0xAB8 PUSH1 0x0 DUP1 REVERT JUMPDEST PUSH1 0x0 PUSH2 0x94A DUP5 DUP5 PUSH2 0xA98 JUMP JUMPDEST PUSH32 0x4E487B7100000000000000000000000000000000000000000000000000000000 PUSH1 0x0 MSTORE PUSH1 0x11 PUSH1 0x4 MSTORE PUSH1 0x24 PUSH1 0x0 REVERT JUMPDEST DUP2 DUP2 SUB DUP2 DUP2 GT ISZERO PUSH2 0x8D3 JUMPI PUSH2 0x8D3 PUSH2 0xAC4 JUMP JUMPDEST PUSH1 0x60 DUP2 ADD PUSH2 0xB14 DUP3 DUP7 PUSH2 0x8F7 JUMP JUMPDEST PUSH2 0xB21 PUSH1 0x20 DUP4 ADD DUP6 PUSH2 0x8F7 JUMP JUMPDEST PUSH2 0x94A PUSH1 0x40 DUP4 ADD DUP5 PUSH2 0x952 JUMP JUMPDEST PUSH1 0x0 JUMPDEST DUP4 DUP2 LT ISZERO PUSH2 0xB49 JUMPI DUP2 DUP2 ADD MLOAD DUP4 DUP3 ADD MSTORE PUSH1 0x20 ADD PUSH2 0xB31 JUMP JUMPDEST POP POP PUSH1 0x0 SWAP2 ADD MSTORE JUMP JUMPDEST PUSH1 0x0 PUSH2 0xB5C DUP3 MLOAD SWAP1 JUMP JUMPDEST PUSH2 0xB6A DUP2 DUP6 PUSH1 0x20 DUP7 ADD PUSH2 0xB2E JUMP JUMPDEST SWAP3 SWAP1 SWAP3 ADD SWAP3 SWAP2 POP POP JUMP JUMPDEST PUSH1 0x0 PUSH2 0x2DF DUP3 DUP5 PUSH2 0xB52 JUMP JUMPDEST DUP1 ISZERO ISZERO PUSH2 0x910 JUMP JUMPDEST DUP1 MLOAD PUSH2 0x8D3 DUP2 PUSH2 0xB80 JUMP JUMPDEST PUSH1 0x0 PUSH1 0x20 DUP3 DUP5 SUB SLT ISZERO PUSH2 0xBA8 JUMPI PUSH2 0xBA8 PUSH1 0x0 DUP1 REVERT JUMPDEST PUSH1 0x0 PUSH2 0x94A DUP5 DUP5 PUSH2 0xB88 JUMP JUMPDEST PUSH1 0x3 DUP2 MSTORE PUSH1 0x0 PUSH1 0x20 DUP3 ADD PUSH32 0x5354460000000000000000000000000000000000000000000000000000000000 DUP2 MSTORE SWAP2 POP JUMPDEST POP PUSH1 0x20 ADD SWAP1 JUMP JUMPDEST PUSH1 0x20 DUP1 DUP3 MSTORE DUP2 ADD PUSH2 0x8D3 DUP2 PUSH2 0xBB4 JUMP JUMPDEST PUSH1 0x40 DUP2 ADD PUSH2 0xC09 DUP3 DUP6 PUSH2 0x8F7 JUMP JUMPDEST PUSH2 0x2DF PUSH1 0x20 DUP4 ADD DUP5 PUSH2 0x952 JUMP JUMPDEST PUSH1 0x2 DUP2 MSTORE PUSH1 0x0 PUSH1 0x20 DUP3 ADD PUSH32 0x5341000000000000000000000000000000000000000000000000000000000000 DUP2 MSTORE SWAP2 POP PUSH2 0xBE4 JUMP JUMPDEST PUSH1 0x20 DUP1 DUP3 MSTORE DUP2 ADD PUSH2 0x8D3 DUP2 PUSH2 0xC16 JUMP JUMPDEST PUSH1 0x2 DUP2 MSTORE PUSH1 0x0 PUSH1 0x20 DUP3 ADD PUSH32 0x5354000000000000000000000000000000000000000000000000000000000000 DUP2 MSTORE SWAP2 POP PUSH2 0xBE4 JUMP JUMPDEST PUSH1 0x20 DUP1 DUP3 MSTORE DUP2 ADD PUSH2 0x8D3 DUP2 PUSH2 0xC5A JUMP INVALID LOG2 PUSH5 0x6970667358 0x22 SLT KECCAK256 MUL PUSH11 0x4F0FAE1D45FF97810355A5 SWAP8 0xB9 PUSH11 0xBDBC1CBFFBAE1C965B2BE0 ADD CALLDATALOAD CREATE2 SGT PUSH8 0x64736F6C63430008 GT STOP CALLER "},"methodIdentifiers":{"TETHER()":"78e7e3d1","USDC()":"89a30271","WETH9()":"4aa4a4fc","poolFee()":"089fe6aa","swapExactInputSingle(uint256)":"73bd43ad","swapExactOutputSingle(uint256,uint256)":"c4b69a18","swapRouter()":"c31c9c07"}}}}}