{
  "_format": "hh-sol-artifact-1",
  "contractName": "SwapExamples",
  "sourceName": "contracts/SingleSwap.sol",
  "abi": [
    {
      "inputs": [
        {
          "internalType": "contract ISwapRouter",
          "name": "_swapRouter",
          "type": "address"
        }
      ],
      "stateMutability": "nonpayable",
      "type": "constructor"
    },
    {
      "inputs": [],
      "name": "TETHER",
      "outputs": [
        {
          "internalType": "address",
          "name": "",
          "type": "address"
        }
      ],
      "stateMutability": "view",
      "type": "function"
    },
    {
      "inputs": [],
      "name": "USDC",
      "outputs": [
        {
          "internalType": "address",
          "name": "",
          "type": "address"
        }
      ],
      "stateMutability": "view",
      "type": "function"
    },
    {
      "inputs": [],
      "name": "WETH9",
      "outputs": [
        {
          "internalType": "address",
          "name": "",
          "type": "address"
        }
      ],
      "stateMutability": "view",
      "type": "function"
    },
    {
      "inputs": [],
      "name": "poolFee",
      "outputs": [
        {
          "internalType": "uint24",
          "name": "",
          "type": "uint24"
        }
      ],
      "stateMutability": "view",
      "type": "function"
    },
    {
      "inputs": [
        {
          "internalType": "uint256",
          "name": "amountIn",
          "type": "uint256"
        }
      ],
      "name": "swapExactInputSingle",
      "outputs": [
        {
          "internalType": "uint256",
          "name": "amountOut",
          "type": "uint256"
        }
      ],
      "stateMutability": "nonpayable",
      "type": "function"
    },
    {
      "inputs": [
        {
          "internalType": "uint256",
          "name": "amountOut",
          "type": "uint256"
        },
        {
          "internalType": "uint256",
          "name": "amountInMaximum",
          "type": "uint256"
        }
      ],
      "name": "swapExactOutputSingle",
      "outputs": [
        {
          "internalType": "uint256",
          "name": "amountIn",
          "type": "uint256"
        }
      ],
      "stateMutability": "nonpayable",
      "type": "function"
    },
    {
      "inputs": [],
      "name": "swapRouter",
      "outputs": [
        {
          "internalType": "contract ISwapRouter",
          "name": "",
          "type": "address"
        }
      ],
      "stateMutability": "view",
      "type": "function"
    }
  ],
  "bytecode": "0x60a060405234801561001057600080fd5b50604051610ddf380380610ddf83398101604081905261002f91610080565b6001600160a01b03166080526100a9565b60006001600160a01b0382165b92915050565b600061004d82610040565b61006781610053565b811461007257600080fd5b50565b805161004d8161005e565b60006020828403121561009557610095600080fd5b60006100a18484610075565b949350505050565b608051610cf86100e760003960008181610124015281816101a20152818161025601528181610333015281816103e301526104940152610cf86000f3fe608060405234801561001057600080fd5b506004361061007d5760003560e01c806378e7e3d11161005b57806378e7e3d1146100e957806389a3027114610104578063c31c9c071461011f578063c4b69a181461015357600080fd5b8063089fe6aa146100825780634aa4a4fc146100a157806373bd43ad146100c9575b600080fd5b61008b6101f481565b60405161009891906108d6565b60405180910390f35b6100bc73c02aaa39b223fe8d0a0e5c4f27ead9083c756cc281565b6040516100989190610911565b6100dc6100d736600461093a565b610166565b6040516100989190610969565b6100bc730165878a594ca255338adfa4d48449f69242eb8f81565b6100bc73a513e6e4b8f2a923d98304ec87f64353c4d5c85381565b6101467f000000000000000000000000000000000000000000000000000000000000000081565b6040516100989190610996565b6100dc6101613660046109a4565b6102f7565b6000610188730165878a594ca255338adfa4d48449f69242eb8f3330856104e9565b6101c7730165878a594ca255338adfa4d48449f69242eb8f7f00000000000000000000000000000000000000000000000000000000000000008461063e565b6040805161010081018252730165878a594ca255338adfa4d48449f69242eb8f815273a513e6e4b8f2a923d98304ec87f64353c4d5c85360208201526101f491810191909152336060820152600090608081016102254260c8610a10565b815260200184815260200160018152602001600a73ffffffffffffffffffffffffffffffffffffffff1681525090507f000000000000000000000000000000000000000000000000000000000000000073ffffffffffffffffffffffffffffffffffffffff1663414bf389826040518263ffffffff1660e01b81526004016102ad9190610adc565b6020604051808303816000875af11580156102cc573d6000803e3d6000fd5b505050506040513d601f19601f820116820180604052508101906102f09190610af6565b9392505050565b6000610319730165878a594ca255338adfa4d48449f69242eb8f3330856104e9565b610358730165878a594ca255338adfa4d48449f69242eb8f7f00000000000000000000000000000000000000000000000000000000000000008461063e565b6040805161010081018252730165878a594ca255338adfa4d48449f69242eb8f815273c02aaa39b223fe8d0a0e5c4f27ead9083c756cc260208201526101f48183015233606082015242608082015260a0810185905260c08101849052600060e082015290517fdb3e21980000000000000000000000000000000000000000000000000000000081527f000000000000000000000000000000000000000000000000000000000000000073ffffffffffffffffffffffffffffffffffffffff169063db3e21989061042d908490600401610adc565b6020604051808303816000875af115801561044c573d6000803e3d6000fd5b505050506040513d601f19601f820116820180604052508101906104709190610af6565b9150828210156104e2576104ba730165878a594ca255338adfa4d48449f69242eb8f7f0000000000000000000000000000000000000000000000000000000000000000600061063e565b6104e2730165878a594ca255338adfa4d48449f69242eb8f336104dd8587610b17565b610787565b5092915050565b6000808573ffffffffffffffffffffffffffffffffffffffff166323b872dd60e01b86868660405160240161052093929190610b2a565b60408051601f198184030181529181526020820180517bffffffffffffffffffffffffffffffffffffffffffffffffffffffff167fffffffff0000000000000000000000000000000000000000000000000000000090941693909317909252905161058b9190610b98565b6000604051808303816000865af19150503d80600081146105c8576040519150601f19603f3d011682016040523d82523d6000602084013e6105cd565b606091505b50915091508180156105f75750805115806105f75750808060200190518101906105f79190610bb7565b610636576040517f08c379a000000000000000000000000000000000000000000000000000000000815260040161062d90610c0f565b60405180910390fd5b505050505050565b6000808473ffffffffffffffffffffffffffffffffffffffff1663095ea7b360e01b8585604051602401610673929190610c1f565b60408051601f198184030181529181526020820180517bffffffffffffffffffffffffffffffffffffffffffffffffffffffff167fffffffff000000000000000000000000000000000000000000000000000000009094169390931790925290516106de9190610b98565b6000604051808303816000865af19150503d806000811461071b576040519150601f19603f3d011682016040523d82523d6000602084013e610720565b606091505b509150915081801561074a57508051158061074a57508080602001905181019061074a9190610bb7565b610780576040517f08c379a000000000000000000000000000000000000000000000000000000000815260040161062d90610c6e565b5050505050565b6000808473ffffffffffffffffffffffffffffffffffffffff1663a9059cbb60e01b85856040516024016107bc929190610c1f565b60408051601f198184030181529181526020820180517bffffffffffffffffffffffffffffffffffffffffffffffffffffffff167fffffffff000000000000000000000000000000000000000000000000000000009094169390931790925290516108279190610b98565b6000604051808303816000865af19150503d8060008114610864576040519150601f19603f3d011682016040523d82523d6000602084013e610869565b606091505b50915091508180156108935750805115806108935750808060200190518101906108939190610bb7565b610780576040517f08c379a000000000000000000000000000000000000000000000000000000000815260040161062d90610cb2565b62ffffff81165b82525050565b602081016108e482846108c9565b92915050565b600073ffffffffffffffffffffffffffffffffffffffff82166108e4565b6108d0816108ea565b602081016108e48284610908565b805b811461092c57600080fd5b50565b80356108e48161091f565b60006020828403121561094f5761094f600080fd5b600061095b848461092f565b949350505050565b806108d0565b602081016108e48284610963565b60006108e4826108ea565b60006108e482610977565b6108d081610982565b602081016108e4828461098d565b600080604083850312156109ba576109ba600080fd5b60006109c6858561092f565b92505060206109d78582860161092f565b9150509250929050565b7f4e487b7100000000000000000000000000000000000000000000000000000000600052601160045260246000fd5b808201808211156108e4576108e46109e1565b73ffffffffffffffffffffffffffffffffffffffff81166108d0565b8051610100830190610a518482610908565b506020820151610a646020850182610908565b506040820151610a7760408501826108c9565b506060820151610a8a6060850182610908565b506080820151610a9d6080850182610963565b5060a0820151610ab060a0850182610963565b5060c0820151610ac360c0850182610963565b5060e0820151610ad660e0850182610a23565b50505050565b61010081016108e48284610a3f565b80516108e48161091f565b600060208284031215610b0b57610b0b600080fd5b600061095b8484610aeb565b818103818111156108e4576108e46109e1565b60608101610b388286610908565b610b456020830185610908565b61095b6040830184610963565b60005b83811015610b6d578181015183820152602001610b55565b50506000910152565b6000610b80825190565b610b8e818560208601610b52565b9290920192915050565b60006102f08284610b76565b801515610921565b80516108e481610ba4565b600060208284031215610bcc57610bcc600080fd5b600061095b8484610bac565b600381526000602082017f5354460000000000000000000000000000000000000000000000000000000000815291505b5060200190565b602080825281016108e481610bd8565b60408101610c2d8285610908565b6102f06020830184610963565b600281526000602082017f534100000000000000000000000000000000000000000000000000000000000081529150610c08565b602080825281016108e481610c3a565b600281526000602082017f535400000000000000000000000000000000000000000000000000000000000081529150610c08565b602080825281016108e481610c7e56fea264697066735822122087bc2f3232fa70f27049cb36106c2174c961d921162803409d2c80322bc3ec9e64736f6c63430008110033",
  "linkReferences": {},
  "deployedLinkReferences": {}
}