{
  "_format": "hh-sol-artifact-1",
  "contractName": "SwapExamples",
  "sourceName": "contracts/SingleSwap.sol",
  "abi": [
    {
      "inputs": [
        {
          "internalType": "contract ISwapRouter",
          "name": "_swapRouter",
          "type": "address"
        }
      ],
      "stateMutability": "nonpayable",
      "type": "constructor"
    },
    {
      "inputs": [],
      "name": "TETHER",
      "outputs": [
        {
          "internalType": "address",
          "name": "",
          "type": "address"
        }
      ],
      "stateMutability": "view",
      "type": "function"
    },
    {
      "inputs": [],
      "name": "USDC",
      "outputs": [
        {
          "internalType": "address",
          "name": "",
          "type": "address"
        }
      ],
      "stateMutability": "view",
      "type": "function"
    },
    {
      "inputs": [],
      "name": "WETH9",
      "outputs": [
        {
          "internalType": "address",
          "name": "",
          "type": "address"
        }
      ],
      "stateMutability": "view",
      "type": "function"
    },
    {
      "inputs": [],
      "name": "poolFee",
      "outputs": [
        {
          "internalType": "uint24",
          "name": "",
          "type": "uint24"
        }
      ],
      "stateMutability": "view",
      "type": "function"
    },
    {
      "inputs": [
        {
          "internalType": "uint256",
          "name": "amountIn",
          "type": "uint256"
        }
      ],
      "name": "swapExactInputSingle",
      "outputs": [
        {
          "internalType": "uint256",
          "name": "amountOut",
          "type": "uint256"
        }
      ],
      "stateMutability": "nonpayable",
      "type": "function"
    },
    {
      "inputs": [
        {
          "internalType": "uint256",
          "name": "amountOut",
          "type": "uint256"
        },
        {
          "internalType": "uint256",
          "name": "amountInMaximum",
          "type": "uint256"
        }
      ],
      "name": "swapExactOutputSingle",
      "outputs": [
        {
          "internalType": "uint256",
          "name": "amountIn",
          "type": "uint256"
        }
      ],
      "stateMutability": "nonpayable",
      "type": "function"
    },
    {
      "inputs": [],
      "name": "swapRouter",
      "outputs": [
        {
          "internalType": "contract ISwapRouter",
          "name": "",
          "type": "address"
        }
      ],
      "stateMutability": "view",
      "type": "function"
    }
  ],
  "bytecode": "0x60a060405234801561001057600080fd5b50604051610c5a380380610c5a83398101604081905261002f91610044565b60601b6001600160601b031916608052610072565b600060208284031215610055578081fd5b81516001600160a01b038116811461006b578182fd5b9392505050565b60805160601c610bb26100a86000398061015a528061020d52806102e2528061034052806103f052806104b05250610bb26000f3fe608060405234801561001057600080fd5b506004361061007d5760003560e01c806378e7e3d11161005b57806378e7e3d1146100d557806389a30271146100dd578063c31c9c07146100e5578063c4b69a18146100ed5761007d565b8063089fe6aa146100825780634aa4a4fc146100a057806373bd43ad146100b5575b600080fd5b61008a610100565b6040516100979190610b8c565b60405180910390f35b6100a8610106565b6040516100979190610b56565b6100c86100c3366004610a94565b61011e565b6040516100979190610b9c565b6100a86102b0565b6100a86102c8565b6100a86102e0565b6100c86100fb366004610ac4565b610304565b6101f481565b73c02aaa39b223fe8d0a0e5c4f27ead9083c756cc281565b6000610140730165878a594ca255338adfa4d48449f69242eb8f3330856104fe565b61017f730165878a594ca255338adfa4d48449f69242eb8f7f0000000000000000000000000000000000000000000000000000000000000000846106e3565b6040805161010081018252730165878a594ca255338adfa4d48449f69242eb8f815273a513e6e4b8f2a923d98304ec87f64353c4d5c85360208201526101f48183015233606082015260c84201608082015260a08101849052600160c0820152600a60e082015290517f414bf3890000000000000000000000000000000000000000000000000000000081527f000000000000000000000000000000000000000000000000000000000000000073ffffffffffffffffffffffffffffffffffffffff169063414bf38990610257908490600401610b77565b602060405180830381600087803b15801561027157600080fd5b505af1158015610285573d6000803e3d6000fd5b505050506040513d601f19601f820116820180604052508101906102a99190610aac565b9392505050565b730165878a594ca255338adfa4d48449f69242eb8f81565b73a513e6e4b8f2a923d98304ec87f64353c4d5c85381565b7f000000000000000000000000000000000000000000000000000000000000000081565b6000610326730165878a594ca255338adfa4d48449f69242eb8f3330856104fe565b610365730165878a594ca255338adfa4d48449f69242eb8f7f0000000000000000000000000000000000000000000000000000000000000000846106e3565b6040805161010081018252730165878a594ca255338adfa4d48449f69242eb8f815273c02aaa39b223fe8d0a0e5c4f27ead9083c756cc260208201526101f48183015233606082015242608082015260a0810185905260c08101849052600060e082015290517fdb3e21980000000000000000000000000000000000000000000000000000000081527f000000000000000000000000000000000000000000000000000000000000000073ffffffffffffffffffffffffffffffffffffffff169063db3e21989061043a908490600401610b77565b602060405180830381600087803b15801561045457600080fd5b505af1158015610468573d6000803e3d6000fd5b505050506040513d601f19601f8201168201806040525081019061048c9190610aac565b9150828210156104f7576104d6730165878a594ca255338adfa4d48449f69242eb8f7f000000000000000000000000000000000000000000000000000000000000000060006106e3565b6104f7730165878a594ca255338adfa4d48449f69242eb8f338486036108bf565b5092915050565b6040805173ffffffffffffffffffffffffffffffffffffffff85811660248301528481166044830152606480830185905283518084039091018152608490920183526020820180517bffffffffffffffffffffffffffffffffffffffffffffffffffffffff167f23b872dd00000000000000000000000000000000000000000000000000000000178152925182516000948594938a169392918291908083835b602083106105db57805182527fffffffffffffffffffffffffffffffffffffffffffffffffffffffffffffffe0909201916020918201910161059e565b6001836020036101000a0380198251168184511680821785525050505050509050019150506000604051808303816000865af19150503d806000811461063d576040519150601f19603f3d011682016040523d82523d6000602084013e610642565b606091505b5091509150818015610670575080511580610670575080806020019051602081101561066d57600080fd5b50515b6106db57604080517f08c379a000000000000000000000000000000000000000000000000000000000815260206004820152600360248201527f5354460000000000000000000000000000000000000000000000000000000000604482015290519081900360640190fd5b505050505050565b6040805173ffffffffffffffffffffffffffffffffffffffff8481166024830152604480830185905283518084039091018152606490920183526020820180517bffffffffffffffffffffffffffffffffffffffffffffffffffffffff167f095ea7b3000000000000000000000000000000000000000000000000000000001781529251825160009485949389169392918291908083835b602083106107b857805182527fffffffffffffffffffffffffffffffffffffffffffffffffffffffffffffffe0909201916020918201910161077b565b6001836020036101000a0380198251168184511680821785525050505050509050019150506000604051808303816000865af19150503d806000811461081a576040519150601f19603f3d011682016040523d82523d6000602084013e61081f565b606091505b509150915081801561084d57508051158061084d575080806020019051602081101561084a57600080fd5b50515b6108b857604080517f08c379a000000000000000000000000000000000000000000000000000000000815260206004820152600260248201527f5341000000000000000000000000000000000000000000000000000000000000604482015290519081900360640190fd5b5050505050565b6040805173ffffffffffffffffffffffffffffffffffffffff8481166024830152604480830185905283518084039091018152606490920183526020820180517bffffffffffffffffffffffffffffffffffffffffffffffffffffffff167fa9059cbb000000000000000000000000000000000000000000000000000000001781529251825160009485949389169392918291908083835b6020831061099457805182527fffffffffffffffffffffffffffffffffffffffffffffffffffffffffffffffe09092019160209182019101610957565b6001836020036101000a0380198251168184511680821785525050505050509050019150506000604051808303816000865af19150503d80600081146109f6576040519150601f19603f3d011682016040523d82523d6000602084013e6109fb565b606091505b5091509150818015610a29575080511580610a295750808060200190516020811015610a2657600080fd5b50515b6108b857604080517f08c379a000000000000000000000000000000000000000000000000000000000815260206004820152600260248201527f5354000000000000000000000000000000000000000000000000000000000000604482015290519081900360640190fd5b600060208284031215610aa5578081fd5b5035919050565b600060208284031215610abd578081fd5b5051919050565b60008060408385031215610ad6578081fd5b50508035926020909101359150565b73ffffffffffffffffffffffffffffffffffffffff80825116835280602083015116602084015262ffffff60408301511660408401528060608301511660608401526080820151608084015260a082015160a084015260c082015160c08401528060e08301511660e0840152505050565b73ffffffffffffffffffffffffffffffffffffffff91909116815260200190565b6101008101610b868284610ae5565b92915050565b62ffffff91909116815260200190565b9081526020019056fea164736f6c6343000706000a",
  "linkReferences": {},
  "deployedLinkReferences": {}
}